{
    "contractName": "DocRegistry",
    "abi": [
        {
            "anonymous": false,
            "inputs": [
                {
                    "indexed": true,
                    "internalType": "address",
                    "name": "_sender",
                    "type": "address"
                },
                {
                    "indexed": false,
                    "internalType": "bytes32",
                    "name": "_hash",
                    "type": "bytes32"
                }
            ],
            "name": "HashStored",
            "type": "event"
        },
        {
            "constant": false,
            "inputs": [
                {
                    "internalType": "bytes32",
                    "name": "_hash",
                    "type": "bytes32"
                }
            ],
            "name": "storeHash",
            "outputs": [
                {
                    "internalType": "bool",
                    "name": "",
                    "type": "bool"
                }
            ],
            "payable": false,
            "stateMutability": "nonpayable",
            "type": "function"
        }
    ],
    "bytecode": "0x608060405234801561001057600080fd5b5061018c806100206000396000f3fe608060405234801561001057600080fd5b506004361061002b5760003560e01c80637fe8888514610030575b600080fd5b61005c6004803603602081101561004657600080fd5b8101908080359060200190929190505050610076565b604051808215151515815260200191505060405180910390f35b60003360008084815260200190815260200160002060000160006101000a81548173ffffffffffffffffffffffffffffffffffffffff021916908373ffffffffffffffffffffffffffffffffffffffff160217905550426000808481526020019081526020016000206001018190555081600080848152602001908152602001600020600201819055503373ffffffffffffffffffffffffffffffffffffffff167f37f2073683f7b3e8558fd9805b052c089ebd1de4ddb0a26c2c78e310aa66cf59836040518082815260200191505060405180910390a26001905091905056fea265627a7a7231582061fec5a9bef4cf9a47ea8fe5144a352244333b2e6dc4ee711a6afbbd9250546164736f6c63430005100032",
    "source": "contract DocRegistry {\n\n  struct Doc {\n      address sender;\n      uint date;\n      bytes32 hash;\n  }\n\n  /**\n   *  @dev Storage space used to record all documents\n   */\n  mapping(bytes32 => Doc) registry;\n\n  /**\n   *  @dev Store a document identified by its 32 bytes hash by recording the hash, the sender and date in the registry\n   *  @dev Emit an event HashStored in case of success\n   *  @param _hash Document hash\n   */\n  function storeHash(bytes32 _hash) external returns (bool) {\n    registry[_hash].sender = msg.sender;\n    registry[_hash].date = now;\n    registry[_hash].hash = _hash;\n\n    emit HashStored(msg.sender, _hash);\n\n    return true;\n  }\n\n  /**\n   *  @dev Definition of the event triggered when a document is successfully stored in the registry\n   */\n  event HashStored(address indexed _sender, bytes32 _hash);\n}",
    "sourcePath": "./contracts/DocRegistry.sol",
    "compiler": {
        "name": "solc",
        "version": "0.5.16+commit.9c3226ce.Emscripten.clang"
    },
    "schemaVersion": "3.4.3",
    "updatedAt": "2022-02-09T10:08:19.778Z",
    "networkType": "ethereum",
    "devdoc": {
        "methods": {
            "storeHash(bytes32)": {
                "details": "Store a document identified by its 32 bytes hash by recording the hash, the sender and date in the registryEmit an event HashStored in case of success",
                "params": {
                    "_hash": "Document hash"
                }
            }
        }
    },
    "userdoc": {
        "methods": {}
    }
}